{
  "contractName": "Tradinghub",
  "abi": [
    {
      "inputs": [],
      "stateMutability": "payable",
      "type": "constructor",
      "payable": true
    },
    {
      "anonymous": false,
      "inputs": [
        {
          "indexed": false,
          "internalType": "string",
          "name": "buyer",
          "type": "string"
        },
        {
          "indexed": false,
          "internalType": "address",
          "name": "seller",
          "type": "address"
        },
        {
          "indexed": false,
          "internalType": "uint256",
          "name": "timestamp",
          "type": "uint256"
        },
        {
          "indexed": false,
          "internalType": "uint256",
          "name": "productId",
          "type": "uint256"
        }
      ],
      "name": "NewPurchase",
      "type": "event"
    },
    {
      "anonymous": false,
      "inputs": [
        {
          "indexed": false,
          "internalType": "uint256",
          "name": "productId",
          "type": "uint256"
        },
        {
          "indexed": false,
          "internalType": "bool",
          "name": "approved",
          "type": "bool"
        }
      ],
      "name": "ProductApproval",
      "type": "event"
    },
    {
      "inputs": [],
      "name": "product_id",
      "outputs": [
        {
          "internalType": "uint256",
          "name": "",
          "type": "uint256"
        }
      ],
      "stateMutability": "view",
      "type": "function",
      "constant": true
    },
    {
      "inputs": [
        {
          "internalType": "uint256",
          "name": "",
          "type": "uint256"
        }
      ],
      "name": "products",
      "outputs": [
        {
          "internalType": "string",
          "name": "prod_owner_acc",
          "type": "string"
        },
        {
          "internalType": "string",
          "name": "name",
          "type": "string"
        },
        {
          "internalType": "string",
          "name": "ipfsAddress",
          "type": "string"
        },
        {
          "internalType": "uint256",
          "name": "price",
          "type": "uint256"
        },
        {
          "internalType": "string",
          "name": "product_type",
          "type": "string"
        },
        {
          "internalType": "string",
          "name": "desc",
          "type": "string"
        },
        {
          "internalType": "string",
          "name": "img_hash",
          "type": "string"
        },
        {
          "internalType": "bool",
          "name": "approved",
          "type": "bool"
        },
        {
          "internalType": "bool",
          "name": "sold",
          "type": "bool"
        }
      ],
      "stateMutability": "view",
      "type": "function",
      "constant": true
    },
    {
      "inputs": [],
      "name": "purchaseIdCounter",
      "outputs": [
        {
          "internalType": "uint256",
          "name": "",
          "type": "uint256"
        }
      ],
      "stateMutability": "view",
      "type": "function",
      "constant": true
    },
    {
      "inputs": [
        {
          "internalType": "uint256",
          "name": "",
          "type": "uint256"
        }
      ],
      "name": "purchases",
      "outputs": [
        {
          "internalType": "string",
          "name": "buyer",
          "type": "string"
        },
        {
          "internalType": "address",
          "name": "seller",
          "type": "address"
        },
        {
          "internalType": "uint256",
          "name": "timestamp",
          "type": "uint256"
        },
        {
          "internalType": "uint256",
          "name": "productId",
          "type": "uint256"
        }
      ],
      "stateMutability": "view",
      "type": "function",
      "constant": true
    },
    {
      "inputs": [
        {
          "internalType": "string",
          "name": "",
          "type": "string"
        }
      ],
      "name": "users",
      "outputs": [
        {
          "internalType": "bool",
          "name": "isRegistered",
          "type": "bool"
        },
        {
          "internalType": "string",
          "name": "username",
          "type": "string"
        }
      ],
      "stateMutability": "view",
      "type": "function",
      "constant": true
    },
    {
      "inputs": [
        {
          "internalType": "string",
          "name": "_acc",
          "type": "string"
        },
        {
          "internalType": "string",
          "name": "_username",
          "type": "string"
        }
      ],
      "name": "registerUser",
      "outputs": [],
      "stateMutability": "nonpayable",
      "type": "function"
    },
    {
      "inputs": [
        {
          "internalType": "string",
          "name": "_acc",
          "type": "string"
        }
      ],
      "name": "checkuser",
      "outputs": [
        {
          "internalType": "string",
          "name": "",
          "type": "string"
        }
      ],
      "stateMutability": "view",
      "type": "function",
      "constant": true
    },
    {
      "inputs": [
        {
          "internalType": "string",
          "name": "_acc",
          "type": "string"
        },
        {
          "internalType": "string",
          "name": "_name",
          "type": "string"
        },
        {
          "internalType": "string",
          "name": "_ipfsAddress",
          "type": "string"
        },
        {
          "internalType": "uint256",
          "name": "_price",
          "type": "uint256"
        },
        {
          "internalType": "string",
          "name": "_desc",
          "type": "string"
        },
        {
          "internalType": "string",
          "name": "_img_hash",
          "type": "string"
        },
        {
          "internalType": "string",
          "name": "_type",
          "type": "string"
        }
      ],
      "name": "addProduct",
      "outputs": [],
      "stateMutability": "nonpayable",
      "type": "function"
    },
    {
      "inputs": [
        {
          "internalType": "string",
          "name": "_acc",
          "type": "string"
        }
      ],
      "name": "list_user_products",
      "outputs": [
        {
          "internalType": "uint256[]",
          "name": "",
          "type": "uint256[]"
        }
      ],
      "stateMutability": "view",
      "type": "function",
      "constant": true
    },
    {
      "inputs": [],
      "name": "listUnapprovedProducts",
      "outputs": [
        {
          "internalType": "uint256[]",
          "name": "",
          "type": "uint256[]"
        }
      ],
      "stateMutability": "view",
      "type": "function",
      "constant": true
    },
    {
      "inputs": [],
      "name": "listAllProducts",
      "outputs": [
        {
          "internalType": "uint256[]",
          "name": "",
          "type": "uint256[]"
        }
      ],
      "stateMutability": "view",
      "type": "function",
      "constant": true
    },
    {
      "inputs": [
        {
          "internalType": "uint256",
          "name": "_productId",
          "type": "uint256"
        }
      ],
      "name": "approveProduct",
      "outputs": [],
      "stateMutability": "nonpayable",
      "type": "function"
    },
    {
      "inputs": [
        {
          "internalType": "string",
          "name": "acc",
          "type": "string"
        }
      ],
      "name": "getUserProductCount",
      "outputs": [
        {
          "internalType": "uint256",
          "name": "",
          "type": "uint256"
        }
      ],
      "stateMutability": "view",
      "type": "function",
      "constant": true
    },
    {
      "inputs": [
        {
          "internalType": "uint256",
          "name": "_index",
          "type": "uint256"
        },
        {
          "internalType": "string",
          "name": "acc",
          "type": "string"
        }
      ],
      "name": "getUserProduct",
      "outputs": [
        {
          "internalType": "string",
          "name": "",
          "type": "string"
        },
        {
          "internalType": "string",
          "name": "",
          "type": "string"
        },
        {
          "internalType": "uint256",
          "name": "",
          "type": "uint256"
        },
        {
          "internalType": "bool",
          "name": "",
          "type": "bool"
        }
      ],
      "stateMutability": "view",
      "type": "function",
      "constant": true
    },
    {
      "inputs": [
        {
          "internalType": "string",
          "name": "_addressString",
          "type": "string"
        }
      ],
      "name": "stringToAddress",
      "outputs": [
        {
          "internalType": "address",
          "name": "",
          "type": "address"
        }
      ],
      "stateMutability": "pure",
      "type": "function",
      "constant": true
    },
    {
      "inputs": [
        {
          "internalType": "uint256",
          "name": "_productId",
          "type": "uint256"
        },
        {
          "internalType": "address",
          "name": "_seller",
          "type": "address"
        }
      ],
      "name": "purchase",
      "outputs": [],
      "stateMutability": "payable",
      "type": "function",
      "payable": true
    },
    {
      "inputs": [],
      "name": "getTotalProductCount",
      "outputs": [
        {
          "internalType": "uint256",
          "name": "",
          "type": "uint256"
        }
      ],
      "stateMutability": "view",
      "type": "function",
      "constant": true
    },
    {
      "inputs": [
        {
          "internalType": "uint256",
          "name": "_id",
          "type": "uint256"
        }
      ],
      "name": "get_product_filehash",
      "outputs": [
        {
          "internalType": "string",
          "name": "",
          "type": "string"
        }
      ],
      "stateMutability": "view",
      "type": "function",
      "constant": true
    },
    {
      "inputs": [],
      "name": "get_total_purchases",
      "outputs": [
        {
          "internalType": "uint256[]",
          "name": "",
          "type": "uint256[]"
        }
      ],
      "stateMutability": "view",
      "type": "function",
      "constant": true
    },
    {
      "inputs": [
        {
          "internalType": "uint256",
          "name": "_pid",
          "type": "uint256"
        }
      ],
      "name": "get_purchase_info",
      "outputs": [
        {
          "internalType": "string",
          "name": "",
          "type": "string"
        },
        {
          "internalType": "address",
          "name": "",
          "type": "address"
        },
        {
          "internalType": "string",
          "name": "",
          "type": "string"
        },
        {
          "internalType": "string",
          "name": "",
          "type": "string"
        }
      ],
      "stateMutability": "view",
      "type": "function",
      "constant": true
    },
    {
      "inputs": [
        {
          "internalType": "uint256",
          "name": "_productId",
          "type": "uint256"
        }
      ],
      "name": "getProductDetails",
      "outputs": [
        {
          "internalType": "string",
          "name": "",
          "type": "string"
        },
        {
          "internalType": "string",
          "name": "",
          "type": "string"
        },
        {
          "internalType": "string",
          "name": "",
          "type": "string"
        },
        {
          "internalType": "string",
          "name": "",
          "type": "string"
        },
        {
          "internalType": "string",
          "name": "",
          "type": "string"
        },
        {
          "internalType": "string",
          "name": "",
          "type": "string"
        }
      ],
      "stateMutability": "view",
      "type": "function",
      "constant": true
    }
  ],
  "bytecode": "0x608060405233600560006101000a81548173ffffffffffffffffffffffffffffffffffffffff021916908373ffffffffffffffffffffffffffffffffffffffff160217905550613504806100546000396000f3fe60806040526004361061012a5760003560e01c8063689e1c03116100ab578063d14ef54e1161006f578063d14ef54e1461042e578063d4a071561461046e578063dafcc181146104ae578063e7a44812146104eb578063eab0a47914610528578063ec249050146105535761012a565b8063689e1c03146103245780637acc0b20146103625780638392fe31146103a7578063ae77c237146103e7578063c85fd67d146104035761012a565b806333542daa116100f257806333542daa1461021257806338b43d931461023d5780633f22b53f146102685780636462ea38146102a55780636813b53b146102e25761012a565b806315706fdf1461012f5780631d2e4afd1461016c57806327d55495146101955780632a66b9ae146101be578063331f1a9d146101e7575b600080fd5b34801561013b57600080fd5b50610156600480360381019061015191906124ee565b61057e565b6040516101639190612578565b60405180910390f35b34801561017857600080fd5b50610193600480360381019061018e9190612593565b6105e5565b005b3480156101a157600080fd5b506101bc60048036038101906101b79190612641565b61073c565b005b3480156101ca57600080fd5b506101e560048036038101906101e0919061266e565b6108d5565b005b3480156101f357600080fd5b506101fc610b05565b6040516102099190612876565b60405180910390f35b34801561021e57600080fd5b50610227610c07565b6040516102349190612876565b60405180910390f35b34801561024957600080fd5b50610252610d9d565b60405161025f9190612876565b60405180910390f35b34801561027457600080fd5b5061028f600480360381019061028a9190612641565b610e72565b60405161029c9190612920565b60405180910390f35b3480156102b157600080fd5b506102cc60048036038101906102c791906124ee565b610f1a565b6040516102d99190612951565b60405180910390f35b3480156102ee57600080fd5b5061030960048036038101906103049190612641565b610f48565b60405161031b9695949392919061296c565b60405180910390f35b34801561033057600080fd5b5061034b600480360381019061034691906124ee565b6112a0565b604051610359929190612a12565b60405180910390f35b34801561036e57600080fd5b5061038960048036038101906103849190612641565b61136f565b60405161039e99989796959493929190612a42565b60405180910390f35b3480156103b357600080fd5b506103ce60048036038101906103c99190612641565b611707565b6040516103de9493929190612af9565b60405180910390f35b61040160048036038101906103fc9190612b71565b6117df565b005b34801561040f57600080fd5b50610418611b9a565b6040516104259190612951565b60405180910390f35b34801561043a57600080fd5b5061045560048036038101906104509190612bb1565b611ba0565b6040516104659493929190612c0d565b60405180910390f35b34801561047a57600080fd5b5061049560048036038101906104909190612641565b611daf565b6040516104a59493929190612c60565b60405180910390f35b3480156104ba57600080fd5b506104d560048036038101906104d091906124ee565b611ef1565b6040516104e29190612876565b60405180910390f35b3480156104f757600080fd5b50610512600480360381019061050d91906124ee565b612036565b60405161051f9190612920565b60405180910390f35b34801561053457600080fd5b5061053d612135565b60405161054a9190612951565b60405180910390f35b34801561055f57600080fd5b5061056861213b565b6040516105759190612951565b60405180910390f35b600080829050600060288251146105ca576040517f08c379a00000000000000000000000000000000000000000000000000000000081526004016105c190612d06565b60405180910390fd5b60208201519050600060148201519050809350505050919050565b816004816040516105f69190612d62565b908152602001604051809103902060000160009054906101000a900460ff1615610655576040517f08c379a000000000000000000000000000000000000000000000000000000000815260040161064c90612dc5565b60405180910390fd5b6040518060600160405280600115158152602001838152602001600067ffffffffffffffff81111561068a576106896123c3565b5b6040519080825280602002602001820160405280156106b85781602001602082028036833780820191505090505b508152506004846040516106cc9190612d62565b908152602001604051809103902060008201518160000160006101000a81548160ff02191690831515021790555060208201518160010190805190602001906107169291906122a4565b50604082015181600201908051906020019061073392919061232a565b50905050505050565b600560009054906101000a900473ffffffffffffffffffffffffffffffffffffffff1673ffffffffffffffffffffffffffffffffffffffff163373ffffffffffffffffffffffffffffffffffffffff16146107cc576040517f08c379a00000000000000000000000000000000000000000000000000000000081526004016107c390612e57565b60405180910390fd5b600054811115610811576040517f08c379a000000000000000000000000000000000000000000000000000000000815260040161080890612ec3565b60405180910390fd5b60006002600083815260200190815260200160002090508060070160009054906101000a900460ff161561087a576040517f08c379a000000000000000000000000000000000000000000000000000000000815260040161087190612f2f565b60405180910390fd5b60018160070160006101000a81548160ff0219169083151502179055507f25c615d38d7ee05ca455086f1836e539360fc2f3bdeaac9df8fac3bf6fd112fa8260016040516108c9929190612f4f565b60405180910390a15050565b866004816040516108e69190612d62565b908152602001604051809103902060000160009054906101000a900460ff16610944576040517f08c379a000000000000000000000000000000000000000000000000000000000815260040161093b90612fc4565b60405180910390fd5b60008081548092919061095690613013565b919050555060405180610120016040528089815260200188815260200187815260200186815260200183815260200185815260200184815260200160001515815260200160001515815250600260008054815260200190815260200160002060008201518160000190805190602001906109d19291906122a4565b5060208201518160010190805190602001906109ee9291906122a4565b506040820151816002019080519060200190610a0b9291906122a4565b50606082015181600301556080820151816004019080519060200190610a329291906122a4565b5060a0820151816005019080519060200190610a4f9291906122a4565b5060c0820151816006019080519060200190610a6c9291906122a4565b5060e08201518160070160006101000a81548160ff0219169083151502179055506101008201518160070160016101000a81548160ff021916908315150217905550905050600488604051610ac19190612d62565b908152602001604051809103902060020160005490806001815401808255809150506001900390600052602060002001600090919091909150555050505050505050565b6060600060015467ffffffffffffffff811115610b2557610b246123c3565b5b604051908082528060200260200182016040528015610b535781602001602082028036833780820191505090505b509050600080600190505b6001548111610bfe576002600082815260200190815260200160002060070160009054906101000a900460ff168015610bb757506002600082815260200190815260200160002060070160019054906101000a900460ff165b15610beb5780838381518110610bd057610bcf61305b565b5b6020026020010181815250508180610be790613013565b9250505b8080610bf690613013565b915050610b5e565b50819250505090565b6060600560009054906101000a900473ffffffffffffffffffffffffffffffffffffffff1673ffffffffffffffffffffffffffffffffffffffff163373ffffffffffffffffffffffffffffffffffffffff1614610c99576040517f08c379a0000000000000000000000000000000000000000000000000000000008152600401610c9090612e57565b60405180910390fd5b6000805467ffffffffffffffff811115610cb657610cb56123c3565b5b604051908082528060200260200182016040528015610ce45781602001602082028036833780820191505090505b509050600080600190505b6000548111610d91576002600082815260200190815260200160002060070160009054906101000a900460ff16158015610d4a57506002600082815260200190815260200160002060070160019054906101000a900460ff16155b15610d7e5780838381518110610d6357610d6261305b565b5b6020026020010181815250508180610d7a90613013565b9250505b8080610d8990613013565b915050610cef565b50808252819250505090565b60606000805467ffffffffffffffff811115610dbc57610dbb6123c3565b5b604051908082528060200260200182016040528015610dea5781602001602082028036833780820191505090505b509050600080600190505b6000548111610e69576002600082815260200190815260200160002060070160009054906101000a900460ff1615610e565780838381518110610e3b57610e3a61305b565b5b6020026020010181815250508180610e5290613013565b9250505b8080610e6190613013565b915050610df5565b50819250505090565b6060600260008381526020019081526020016000206002018054610e95906130b9565b80601f0160208091040260200160405190810160405280929190818152602001828054610ec1906130b9565b8015610f0e5780601f10610ee357610100808354040283529160200191610f0e565b820191906000526020600020905b815481529060010190602001808311610ef157829003601f168201915b50505050509050919050565b6000600482604051610f2c9190612d62565b9081526020016040518091039020600201805490509050919050565b606080606080606080600054871115610f96576040517f08c379a0000000000000000000000000000000000000000000000000000000008152600401610f8d90612ec3565b60405180910390fd5b60006002600089815260200190815260200160002090508060000181600101610fc28360030154612144565b836004018460050185600601858054610fda906130b9565b80601f0160208091040260200160405190810160405280929190818152602001828054611006906130b9565b80156110535780601f1061102857610100808354040283529160200191611053565b820191906000526020600020905b81548152906001019060200180831161103657829003601f168201915b50505050509550848054611066906130b9565b80601f0160208091040260200160405190810160405280929190818152602001828054611092906130b9565b80156110df5780601f106110b4576101008083540402835291602001916110df565b820191906000526020600020905b8154815290600101906020018083116110c257829003601f168201915b505050505094508280546110f2906130b9565b80601f016020809104026020016040519081016040528092919081815260200182805461111e906130b9565b801561116b5780601f106111405761010080835404028352916020019161116b565b820191906000526020600020905b81548152906001019060200180831161114e57829003601f168201915b5050505050925081805461117e906130b9565b80601f01602080910402602001604051908101604052809291908181526020018280546111aa906130b9565b80156111f75780601f106111cc576101008083540402835291602001916111f7565b820191906000526020600020905b8154815290600101906020018083116111da57829003601f168201915b5050505050915080805461120a906130b9565b80601f0160208091040260200160405190810160405280929190818152602001828054611236906130b9565b80156112835780601f1061125857610100808354040283529160200191611283565b820191906000526020600020905b81548152906001019060200180831161126657829003601f168201915b505050505090509650965096509650965096505091939550919395565b6004818051602081018201805184825260208301602085012081835280955050505050506000915090508060000160009054906101000a900460ff16908060010180546112ec906130b9565b80601f0160208091040260200160405190810160405280929190818152602001828054611318906130b9565b80156113655780601f1061133a57610100808354040283529160200191611365565b820191906000526020600020905b81548152906001019060200180831161134857829003601f168201915b5050505050905082565b6002602052806000526040600020600091509050806000018054611392906130b9565b80601f01602080910402602001604051908101604052809291908181526020018280546113be906130b9565b801561140b5780601f106113e05761010080835404028352916020019161140b565b820191906000526020600020905b8154815290600101906020018083116113ee57829003601f168201915b505050505090806001018054611420906130b9565b80601f016020809104026020016040519081016040528092919081815260200182805461144c906130b9565b80156114995780601f1061146e57610100808354040283529160200191611499565b820191906000526020600020905b81548152906001019060200180831161147c57829003601f168201915b5050505050908060020180546114ae906130b9565b80601f01602080910402602001604051908101604052809291908181526020018280546114da906130b9565b80156115275780601f106114fc57610100808354040283529160200191611527565b820191906000526020600020905b81548152906001019060200180831161150a57829003601f168201915b505050505090806003015490806004018054611542906130b9565b80601f016020809104026020016040519081016040528092919081815260200182805461156e906130b9565b80156115bb5780601f10611590576101008083540402835291602001916115bb565b820191906000526020600020905b81548152906001019060200180831161159e57829003601f168201915b5050505050908060050180546115d0906130b9565b80601f01602080910402602001604051908101604052809291908181526020018280546115fc906130b9565b80156116495780601f1061161e57610100808354040283529160200191611649565b820191906000526020600020905b81548152906001019060200180831161162c57829003601f168201915b50505050509080600601805461165e906130b9565b80601f016020809104026020016040519081016040528092919081815260200182805461168a906130b9565b80156116d75780601f106116ac576101008083540402835291602001916116d7565b820191906000526020600020905b8154815290600101906020018083116116ba57829003601f168201915b5050505050908060070160009054906101000a900460ff16908060070160019054906101000a900460ff16905089565b600360205280600052604060002060009150905080600001805461172a906130b9565b80601f0160208091040260200160405190810160405280929190818152602001828054611756906130b9565b80156117a35780601f10611778576101008083540402835291602001916117a3565b820191906000526020600020905b81548152906001019060200180831161178657829003601f168201915b5050505050908060010160009054906101000a900473ffffffffffffffffffffffffffffffffffffffff16908060020154908060030154905084565b600054821115611824576040517f08c379a000000000000000000000000000000000000000000000000000000000815260040161181b90612ec3565b60405180910390fd5b60006002600084815260200190815260200160002090508060070160009054906101000a900460ff1661188c576040517f08c379a000000000000000000000000000000000000000000000000000000000815260040161188390613136565b60405180910390fd5b670de0b6b3a764000081600301546118a49190613156565b3410156118e6576040517f08c379a00000000000000000000000000000000000000000000000000000000081526004016118dd90613222565b60405180910390fd5b6000670de0b6b3a764000082600301546119009190613156565b905060006064600a836119139190613156565b61191d9190613271565b90506000818361192d91906132a2565b9050600560009054906101000a900473ffffffffffffffffffffffffffffffffffffffff1673ffffffffffffffffffffffffffffffffffffffff166108fc839081150290604051600060405180830381858888f19350505050158015611997573d6000803e3d6000fd5b508473ffffffffffffffffffffffffffffffffffffffff166108fc829081150290604051600060405180830381858888f193505050501580156119de573d6000803e3d6000fd5b506001600260008054815260200190815260200160002060070160016101000a81548160ff02191690831515021790555060006040518060800160405280600260008a81526020019081526020016000206000018054611a3d906130b9565b80601f0160208091040260200160405190810160405280929190818152602001828054611a69906130b9565b8015611ab65780601f10611a8b57610100808354040283529160200191611ab6565b820191906000526020600020905b815481529060010190602001808311611a9957829003601f168201915b505050505081526020018773ffffffffffffffffffffffffffffffffffffffff168152602001428152602001888152509050806003600060015481526020019081526020016000206000820151816000019080519060200190611b1a9291906122a4565b5060208201518160010160006101000a81548173ffffffffffffffffffffffffffffffffffffffff021916908373ffffffffffffffffffffffffffffffffffffffff160217905550604082015181600201556060820151816003015590505060016000815480929190611b8c90613013565b919050555050505050505050565b60015481565b606080600080600485604051611bb69190612d62565b9081526020016040518091039020600201805490508610611c0c576040517f08c379a0000000000000000000000000000000000000000000000000000000008152600401611c0390613322565b60405180910390fd5b6000600486604051611c1e9190612d62565b90815260200160405180910390206002018781548110611c4157611c4061305b565b5b906000526020600020015490506000600260008381526020019081526020016000209050806001018160020182600301548360070160009054906101000a900460ff16838054611c90906130b9565b80601f0160208091040260200160405190810160405280929190818152602001828054611cbc906130b9565b8015611d095780601f10611cde57610100808354040283529160200191611d09565b820191906000526020600020905b815481529060010190602001808311611cec57829003601f168201915b50505050509350828054611d1c906130b9565b80601f0160208091040260200160405190810160405280929190818152602001828054611d48906130b9565b8015611d955780601f10611d6a57610100808354040283529160200191611d95565b820191906000526020600020905b815481529060010190602001808311611d7857829003601f168201915b505050505092509550955095509550505092959194509250565b60606000606080600154851115611dfb576040517f08c379a0000000000000000000000000000000000000000000000000000000008152600401611df29061338e565b60405180910390fd5b6000600360008781526020019081526020016000209050806000018160010160009054906101000a900473ffffffffffffffffffffffffffffffffffffffff16611e488360020154612144565b611e558460030154612144565b838054611e61906130b9565b80601f0160208091040260200160405190810160405280929190818152602001828054611e8d906130b9565b8015611eda5780601f10611eaf57610100808354040283529160200191611eda565b820191906000526020600020905b815481529060010190602001808311611ebd57829003601f168201915b505050505093509450945094509450509193509193565b60606000805467ffffffffffffffff811115611f1057611f0f6123c3565b5b604051908082528060200260200182016040528015611f3e5781602001602082028036833780820191505090505b509050600080600190505b600054811161202b5784604051602001611f639190612d62565b6040516020818303038152906040528051906020012060026000838152602001908152602001600020600001604051602001611f9f9190613442565b60405160208183030381529060405280519060200120148015611fe457506000600260008381526020019081526020016000206001018054611fe0906130b9565b9050115b156120185780838381518110611ffd57611ffc61305b565b5b602002602001018181525050818061201490613013565b9250505b808061202390613013565b915050611f49565b508192505050919050565b60606004826040516120489190612d62565b908152602001604051809103902060000160009054906101000a900460ff161561211d5760048260405161207c9190612d62565b90815260200160405180910390206001018054612098906130b9565b80601f01602080910402602001604051908101604052809291908181526020018280546120c4906130b9565b80156121115780601f106120e657610100808354040283529160200191612111565b820191906000526020600020905b8154815290600101906020018083116120f457829003601f168201915b50505050509050612130565b6040518060200160405280600081525090505b919050565b60005481565b60008054905090565b60606000820361218b576040518060400160405280600181526020017f3000000000000000000000000000000000000000000000000000000000000000815250905061229f565b600082905060005b600082146121bd5780806121a690613013565b915050600a826121b69190613271565b9150612193565b60008167ffffffffffffffff8111156121d9576121d86123c3565b5b6040519080825280601f01601f19166020018201604052801561220b5781602001600182028036833780820191505090505b5090505b600085146122985760018261222491906132a2565b9150600a856122339190613459565b603061223f9190613497565b60f81b8183815181106122555761225461305b565b5b60200101907effffffffffffffffffffffffffffffffffffffffffffffffffffffffffffff1916908160001a905350600a856122919190613271565b945061220f565b8093505050505b919050565b8280546122b0906130b9565b90600052602060002090601f0160209004810192826122d25760008555612319565b82601f106122eb57805160ff1916838001178555612319565b82800160010185558215612319579182015b828111156123185782518255916020019190600101906122fd565b5b5090506123269190612377565b5090565b828054828255906000526020600020908101928215612366579160200282015b8281111561236557825182559160200191906001019061234a565b5b5090506123739190612377565b5090565b5b80821115612390576000816000905550600101612378565b5090565b6000604051905090565b600080fd5b600080fd5b600080fd5b600080fd5b6000601f19601f8301169050919050565b7f4e487b7100000000000000000000000000000000000000000000000000000000600052604160045260246000fd5b6123fb826123b2565b810181811067ffffffffffffffff8211171561241a576124196123c3565b5b80604052505050565b600061242d612394565b905061243982826123f2565b919050565b600067ffffffffffffffff821115612459576124586123c3565b5b612462826123b2565b9050602081019050919050565b82818337600083830152505050565b600061249161248c8461243e565b612423565b9050828152602081018484840111156124ad576124ac6123ad565b5b6124b884828561246f565b509392505050565b600082601f8301126124d5576124d46123a8565b5b81356124e584826020860161247e565b91505092915050565b6000602082840312156125045761250361239e565b5b600082013567ffffffffffffffff811115612522576125216123a3565b5b61252e848285016124c0565b91505092915050565b600073ffffffffffffffffffffffffffffffffffffffff82169050919050565b600061256282612537565b9050919050565b61257281612557565b82525050565b600060208201905061258d6000830184612569565b92915050565b600080604083850312156125aa576125a961239e565b5b600083013567ffffffffffffffff8111156125c8576125c76123a3565b5b6125d4858286016124c0565b925050602083013567ffffffffffffffff8111156125f5576125f46123a3565b5b612601858286016124c0565b9150509250929050565b6000819050919050565b61261e8161260b565b811461262957600080fd5b50565b60008135905061263b81612615565b92915050565b6000602082840312156126575761265661239e565b5b60006126658482850161262c565b91505092915050565b600080600080600080600060e0888a03121561268d5761268c61239e565b5b600088013567ffffffffffffffff8111156126ab576126aa6123a3565b5b6126b78a828b016124c0565b975050602088013567ffffffffffffffff8111156126d8576126d76123a3565b5b6126e48a828b016124c0565b965050604088013567ffffffffffffffff811115612705576127046123a3565b5b6127118a828b016124c0565b95505060606127228a828b0161262c565b945050608088013567ffffffffffffffff811115612743576127426123a3565b5b61274f8a828b016124c0565b93505060a088013567ffffffffffffffff8111156127705761276f6123a3565b5b61277c8a828b016124c0565b92505060c088013567ffffffffffffffff81111561279d5761279c6123a3565b5b6127a98a828b016124c0565b91505092959891949750929550565b600081519050919050565b600082825260208201905092915050565b6000819050602082019050919050565b6127ed8161260b565b82525050565b60006127ff83836127e4565b60208301905092915050565b6000602082019050919050565b6000612823826127b8565b61282d81856127c3565b9350612838836127d4565b8060005b8381101561286957815161285088826127f3565b975061285b8361280b565b92505060018101905061283c565b5085935050505092915050565b600060208201905081810360008301526128908184612818565b905092915050565b600081519050919050565b600082825260208201905092915050565b60005b838110156128d25780820151818401526020810190506128b7565b838111156128e1576000848401525b50505050565b60006128f282612898565b6128fc81856128a3565b935061290c8185602086016128b4565b612915816123b2565b840191505092915050565b6000602082019050818103600083015261293a81846128e7565b905092915050565b61294b8161260b565b82525050565b60006020820190506129666000830184612942565b92915050565b600060c082019050818103600083015261298681896128e7565b9050818103602083015261299a81886128e7565b905081810360408301526129ae81876128e7565b905081810360608301526129c281866128e7565b905081810360808301526129d681856128e7565b905081810360a08301526129ea81846128e7565b9050979650505050505050565b60008115159050919050565b612a0c816129f7565b82525050565b6000604082019050612a276000830185612a03565b8181036020830152612a3981846128e7565b90509392505050565b6000610120820190508181036000830152612a5d818c6128e7565b90508181036020830152612a71818b6128e7565b90508181036040830152612a85818a6128e7565b9050612a946060830189612942565b8181036080830152612aa681886128e7565b905081810360a0830152612aba81876128e7565b905081810360c0830152612ace81866128e7565b9050612add60e0830185612a03565b612aeb610100830184612a03565b9a9950505050505050505050565b60006080820190508181036000830152612b1381876128e7565b9050612b226020830186612569565b612b2f6040830185612942565b612b3c6060830184612942565b95945050505050565b612b4e81612557565b8114612b5957600080fd5b50565b600081359050612b6b81612b45565b92915050565b60008060408385031215612b8857612b8761239e565b5b6000612b968582860161262c565b9250506020612ba785828601612b5c565b9150509250929050565b60008060408385031215612bc857612bc761239e565b5b6000612bd68582860161262c565b925050602083013567ffffffffffffffff811115612bf757612bf66123a3565b5b612c03858286016124c0565b9150509250929050565b60006080820190508181036000830152612c2781876128e7565b90508181036020830152612c3b81866128e7565b9050612c4a6040830185612942565b612c576060830184612a03565b95945050505050565b60006080820190508181036000830152612c7a81876128e7565b9050612c896020830186612569565b8181036040830152612c9b81856128e7565b90508181036060830152612caf81846128e7565b905095945050505050565b7f496e76616c6964206164647265737320737472696e67206c656e677468000000600082015250565b6000612cf0601d836128a3565b9150612cfb82612cba565b602082019050919050565b60006020820190508181036000830152612d1f81612ce3565b9050919050565b600081905092915050565b6000612d3c82612898565b612d468185612d26565b9350612d568185602086016128b4565b80840191505092915050565b6000612d6e8284612d31565b915081905092915050565b7f5573657220697320616c726561647920726567697374657265642e0000000000600082015250565b6000612daf601b836128a3565b9150612dba82612d79565b602082019050919050565b60006020820190508181036000830152612dde81612da2565b9050919050565b7f4f6e6c7920746865206f776e65722063616e20706572666f726d20746869732060008201527f6f7065726174696f6e2e00000000000000000000000000000000000000000000602082015250565b6000612e41602a836128a3565b9150612e4c82612de5565b604082019050919050565b60006020820190508181036000830152612e7081612e34565b9050919050565b7f496e76616c69642070726f647563742049442e00000000000000000000000000600082015250565b6000612ead6013836128a3565b9150612eb882612e77565b602082019050919050565b60006020820190508181036000830152612edc81612ea0565b9050919050565b7f50726f6475637420697320616c726561647920617070726f7665642e00000000600082015250565b6000612f19601c836128a3565b9150612f2482612ee3565b602082019050919050565b60006020820190508181036000830152612f4881612f0c565b9050919050565b6000604082019050612f646000830185612942565b612f716020830184612a03565b9392505050565b7f55736572206973206e6f7420726567697374657265642e000000000000000000600082015250565b6000612fae6017836128a3565b9150612fb982612f78565b602082019050919050565b60006020820190508181036000830152612fdd81612fa1565b9050919050565b7f4e487b7100000000000000000000000000000000000000000000000000000000600052601160045260246000fd5b600061301e8261260b565b91507fffffffffffffffffffffffffffffffffffffffffffffffffffffffffffffffff82036130505761304f612fe4565b5b600182019050919050565b7f4e487b7100000000000000000000000000000000000000000000000000000000600052603260045260246000fd5b7f4e487b7100000000000000000000000000000000000000000000000000000000600052602260045260246000fd5b600060028204905060018216806130d157607f821691505b6020821081036130e4576130e361308a565b5b50919050565b7f50726f64756374206973206e6f7420617070726f7665642e0000000000000000600082015250565b60006131206018836128a3565b915061312b826130ea565b602082019050919050565b6000602082019050818103600083015261314f81613113565b9050919050565b60006131618261260b565b915061316c8361260b565b9250817fffffffffffffffffffffffffffffffffffffffffffffffffffffffffffffffff04831182151516156131a5576131a4612fe4565b5b828202905092915050565b7f496e73756666696369656e742066756e647320746f206d616b6520746865207060008201527f7572636861736500000000000000000000000000000000000000000000000000602082015250565b600061320c6027836128a3565b9150613217826131b0565b604082019050919050565b6000602082019050818103600083015261323b816131ff565b9050919050565b7f4e487b7100000000000000000000000000000000000000000000000000000000600052601260045260246000fd5b600061327c8261260b565b91506132878361260b565b92508261329757613296613242565b5b828204905092915050565b60006132ad8261260b565b91506132b88361260b565b9250828210156132cb576132ca612fe4565b5b828203905092915050565b7f50726f6475637420696e646578206f7574206f6620626f756e64732e00000000600082015250565b600061330c601c836128a3565b9150613317826132d6565b602082019050919050565b6000602082019050818103600083015261333b816132ff565b9050919050565b7f496e76616c69642050757263686173652049442e000000000000000000000000600082015250565b60006133786014836128a3565b915061338382613342565b602082019050919050565b600060208201905081810360008301526133a78161336b565b9050919050565b60008190508160005260206000209050919050565b600081546133d0816130b9565b6133da8186612d26565b945060018216600081146133f5576001811461340657613439565b60ff19831686528186019350613439565b61340f856133ae565b60005b8381101561343157815481890152600182019150602081019050613412565b838801955050505b50505092915050565b600061344e82846133c3565b915081905092915050565b60006134648261260b565b915061346f8361260b565b92508261347f5761347e613242565b5b828206905092915050565b600060ff82169050919050565b60006134a28261348a565b91506134ad8361348a565b92508260ff038211156134c3576134c2612fe4565b5b82820190509291505056fea2646970667358221220081068a7a2c159c42cffa914587f6a69119c49200628a9dc4acbdd1fcc0cf3d664736f6c634300080d0033",
  "immutableReferences": {},
  "source": "// SPDX-License-Identifier: SEE LICENSE IN LICENSE\r\npragma solidity ^0.8.0;\r\n\r\ncontract Tradinghub {\r\n    struct Product {\r\n        string prod_owner_acc;\r\n        string name;\r\n        string ipfsAddress; // IPFS address of the product information\r\n        uint256 price;\r\n        string product_type;\r\n        string desc;\r\n        string img_hash;\r\n        bool approved;\r\n        bool sold;\r\n    }\r\n\r\n    struct User {\r\n        bool isRegistered;\r\n        string username;\r\n        uint256[] userProducts;\r\n    }\r\n\r\n    struct Purchase {\r\n        string buyer;\r\n        address seller;\r\n        uint256 timestamp;\r\n        uint256 productId;\r\n    }\r\n\r\n    event NewPurchase(\r\n        string buyer,\r\n        address seller,\r\n        uint256 timestamp,\r\n        uint256 productId\r\n    );\r\n\r\n    event ProductApproval(uint256 productId, bool approved);\r\n\r\n    uint256 public product_id;\r\n    uint256 public purchaseIdCounter;\r\n    mapping(uint256 => Product) public products;\r\n    mapping(uint256 => Purchase) public purchases;\r\n    mapping(string => User) public users;\r\n\r\n    address payable private owner;\r\n\r\n    modifier onlyOwner() {\r\n        require(\r\n            msg.sender == owner,\r\n            \"Only the owner can perform this operation.\"\r\n        );\r\n        _;\r\n    }\r\n\r\n    modifier notRegisteredUser(string memory acc) {\r\n        require(!users[acc].isRegistered, \"User is already registered.\");\r\n        _;\r\n    }\r\n    modifier onlyRegistered(string memory acc) {\r\n        require(users[acc].isRegistered, \"User is not registered.\");\r\n        _;\r\n    }\r\n\r\n    constructor() payable {\r\n        owner = payable(msg.sender);\r\n    }\r\n\r\n    function registerUser(\r\n        string memory _acc,\r\n        string memory _username\r\n    ) public notRegisteredUser(_acc) {\r\n        users[_acc] = User(true, _username, new uint256[](0));\r\n    }\r\n\r\n  function checkuser(string memory _acc) public view returns (string memory) {\r\n    if (users[_acc].isRegistered) {\r\n        return users[_acc].username;\r\n    } else {\r\n        return \"\";\r\n    }\r\n}\r\n\r\n     // Helper function to convert uint256 to string\r\n    function toString(uint256 value) internal pure returns (string memory) {\r\n        if (value == 0) {\r\n            return \"0\";\r\n        }\r\n        uint256 tempValue = value;\r\n        uint256 length;\r\n        while (tempValue != 0) {\r\n            length++;\r\n            tempValue /= 10;\r\n        }\r\n        bytes memory buffer = new bytes(length);\r\n        while (value != 0) {\r\n            length -= 1;\r\n            buffer[length] = bytes1(uint8(48 + uint8(value % 10)));\r\n            value /= 10;\r\n        }\r\n        return string(buffer);\r\n    }\r\n\r\n    function addProduct(\r\n        string memory _acc,\r\n        string memory _name,\r\n        string memory _ipfsAddress,\r\n        uint256 _price,\r\n        string memory _desc,\r\n        string memory _img_hash,\r\n        string memory _type\r\n    ) public onlyRegistered(_acc) {\r\n        product_id++;\r\n        products[product_id] = Product(\r\n            _acc,\r\n            _name,\r\n            _ipfsAddress,\r\n            _price,\r\n            _type,\r\n            _desc,\r\n            _img_hash,\r\n            false,\r\n            false\r\n        );\r\n        users[_acc].userProducts.push(product_id);\r\n    }\r\n\r\n    function list_user_products(\r\n        string memory _acc\r\n    ) public view returns (uint256[] memory) {\r\n        uint256[] memory allProducts = new uint256[](product_id);\r\n        uint256 count = 0;\r\n        for (uint256 i = 1; i <= product_id; i++) {\r\n            if (\r\n                keccak256(abi.encodePacked(products[i].prod_owner_acc)) ==\r\n                keccak256(abi.encodePacked(_acc)) &&\r\n                bytes(products[i].name).length > 0\r\n            ) {\r\n                allProducts[count] = i;\r\n                count++;\r\n            }\r\n        }\r\n\r\n        return allProducts;\r\n    }\r\n\r\n    function listUnapprovedProducts()\r\n        public\r\n        view\r\n        onlyOwner\r\n        returns (uint256[] memory)\r\n    {\r\n        uint256[] memory unapprovedProducts = new uint256[](product_id);\r\n        uint256 count = 0;\r\n\r\n        for (uint256 i = 1; i <= product_id; i++) {\r\n            if (!products[i].approved && !products[i].sold) {\r\n                unapprovedProducts[count] = i;\r\n                count++;\r\n            }\r\n        }\r\n\r\n        // Resize the array to remove any unused elements\r\n        assembly {\r\n            mstore(unapprovedProducts, count)\r\n        }\r\n\r\n        return unapprovedProducts;\r\n    }\r\n\r\n    function listAllProducts() public view returns (uint256[] memory) {\r\n        uint256[] memory allProducts = new uint256[](product_id);\r\n        uint256 count = 0;\r\n        for (uint256 i = 1; i <= product_id; i++) {\r\n            if (products[i].approved) {\r\n                allProducts[count] = i;\r\n                count++;\r\n            }\r\n        }\r\n\r\n        return allProducts;\r\n    }\r\n\r\n    function approveProduct(uint256 _productId) public onlyOwner {\r\n        require(_productId <= product_id, \"Invalid product ID.\");\r\n        Product storage product = products[_productId];\r\n        require(!product.approved, \"Product is already approved.\");\r\n        product.approved = true;\r\n        emit ProductApproval(_productId, true);\r\n    }\r\n\r\n    function getUserProductCount(\r\n        string memory acc\r\n    ) public view returns (uint256) {\r\n        return users[acc].userProducts.length;\r\n    }\r\n\r\n    function getUserProduct(\r\n        uint256 _index,\r\n        string memory acc\r\n    ) public view returns (string memory, string memory, uint256, bool) {\r\n        require(\r\n            _index < users[acc].userProducts.length,\r\n            \"Product index out of bounds.\"\r\n        );\r\n        uint256 productId = users[acc].userProducts[_index];\r\n        Product storage product = products[productId];\r\n        return (\r\n            product.name,\r\n            product.ipfsAddress,\r\n            product.price,\r\n            product.approved\r\n        );\r\n    }\r\n\r\n    function stringToAddress(\r\n        string memory _addressString\r\n    ) public pure returns (address) {\r\n        bytes memory tempBytes = bytes(_addressString);\r\n        bytes20 convertedBytes;\r\n\r\n        // Check that the string has the correct length (40 characters without \"0x\")\r\n        require(tempBytes.length == 40, \"Invalid address string length\");\r\n\r\n        // Convert the string to bytes20\r\n        assembly {\r\n            convertedBytes := mload(add(tempBytes, 0x20))\r\n        }\r\n\r\n        // Convert bytes20 to address\r\n        address addr;\r\n        assembly {\r\n            addr := mload(add(convertedBytes, 20))\r\n        }\r\n\r\n        return addr;\r\n    }\r\n\r\n    function purchase(uint256 _productId, address _seller) external payable {\r\n        require(_productId <= product_id, \"Invalid product ID.\");\r\n        Product storage product = products[_productId];\r\n        require(product.approved, \"Product is not approved.\");\r\n        require(\r\n            msg.value >= product.price * 1 ether,\r\n            \"Insufficient funds to make the purchase\"\r\n        );\r\n\r\n        // Calculate the amounts to be distributed\r\n        uint256 totalPrice = product.price * 1 ether;\r\n        uint256 ownerCut = (totalPrice * 10) / 100; // 10% goes to the owner\r\n        uint256 sellerCut = totalPrice - ownerCut; // Remaining goes to the seller\r\n\r\n        // Transfer funds\r\n        owner.transfer(ownerCut);\r\n        payable(_seller).transfer(sellerCut);\r\n        products[product_id].sold = true;\r\n        // Create a purchase record\r\n        Purchase memory newPurchasee = Purchase(\r\n            products[_productId].prod_owner_acc,\r\n            _seller,\r\n            block.timestamp,\r\n            _productId\r\n        );\r\n\r\n        purchases[purchaseIdCounter] = newPurchasee;\r\n        purchaseIdCounter++;\r\n        // emit NewPurchase(products[_productId].prod_owner_acc, _seller, block.timestamp, _productId);\r\n    }\r\n\r\n    function getTotalProductCount() public view returns (uint256) {\r\n        return product_id;\r\n    }\r\n\r\n    function get_product_filehash(uint256 _id) public view returns (string memory) {\r\n    return products[_id].ipfsAddress;\r\n}\r\n\r\n\r\n    function get_total_purchases()\r\n        public\r\n        view\r\n        returns (uint256[] memory)\r\n    {\r\n        uint256[] memory all_purchases = new uint256[](purchaseIdCounter);\r\n        uint256 count = 0;\r\n        for (uint256 i = 1; i <= purchaseIdCounter; i++) {\r\n            //&& bytes(products[i].name).length > 0\r\n            if (products[i].approved && products[i].sold) {\r\n                all_purchases[count] = i;\r\n                count++;\r\n            }\r\n        }\r\n\r\n        return all_purchases;\r\n    }\r\n\r\n    function get_purchase_info(uint256 _pid)\r\n        public\r\n        view\r\n        returns (string memory, address, string memory, string memory)\r\n    {\r\n require(_pid <= purchaseIdCounter, \"Invalid Purchase ID.\");\r\n        Purchase storage purchace = purchases[_pid];\r\n        return (\r\n            purchace.buyer,\r\n            purchace.seller,\r\n            toString(purchace.timestamp),\r\n            toString(purchace.productId)\r\n        );\r\n    }\r\n\r\n   \r\n    function getProductDetails(\r\n        uint256 _productId\r\n    )\r\n        public\r\n        view\r\n        returns (\r\n            string memory,\r\n            string memory,\r\n            string memory,\r\n            string memory,\r\n            string memory,\r\n            string memory\r\n        )\r\n    {\r\n        require(_productId <= product_id, \"Invalid product ID.\");\r\n        Product storage product = products[_productId];\r\n        return (\r\n            product.prod_owner_acc,\r\n            product.name,\r\n            toString(product.price),\r\n            product.product_type,\r\n            product.desc,\r\n            product.img_hash\r\n        );\r\n    }\r\n}\r\n",
  "sourcePath": "E:\\DigiTradeHub\\contracts\\Tradinghub.sol",
  "compiler": {
    "name": "solc",
    "version": "0.8.13+commit.abaa5c0e.Emscripten.clang"
  },
  "schemaVersion": "3.4.16",
  "updatedAt": "2023-11-26T04:46:42.239Z",
  "networkType": "ethereum",
  "devdoc": {
    "kind": "dev",
    "methods": {},
    "version": 1
  },
  "userdoc": {
    "kind": "user",
    "methods": {},
    "version": 1
  }
}